:100000000C942A000C9434000C9434000C943400AA
:100010000C9434000C9434000C9434000C94340090
:100020000C9434000C9434000C9434000C94340080
:100030000C9434000C9434000C9434000C94340070
:100040000C9434000C9434000C9434000C94340060
:100050000C94340011241FBECFE5D8E0DEBFCDBF25
:100060000E9436000C9456000C94000084B78068FF
:1000700084BF84B7806884BF1ABA8FE087BB14BA84
:100080008FEF81BB89B3982F977098BBE9EFF0E0B1
:100090003197F1F700C0000083B3282F2F70F0E1F3
:1000A0009F9FC0011124822B82BBECCFF894FFCF1D
:00000001FF
