:100000000C942A000C9447000C9447000C94470071
:100010000C9447000C9447000C9447000C94470044
:100020000C9447000C9447000C9447000C94470034
:100030000C9447000C9447000C9447000C94470024
:100040000C9447000C9447000C9447000C94470014
:100050000C94470011241FBECFE5D8E0DEBFCDBF12
:1000600010E0A0E6B0E0E0EBF2E002C005900D92F7
:10007000A83EB107D9F720E0A8EEB0E001C01D927C
:10008000AA3EB207E1F70E9449000C9456010C9475
:100090000000CF93DF93CDB7DEB7C858D1090FB6B4
:1000A000F894DEBF0FBECDBF84B7806884BF84B72D
:1000B000806884BF80E481BB12BA8FEF8ABB87BBA4
:1000C00084BB88E8E0E6F0E0DE01119601900D9235
:1000D0008A95E1F71092E9001092E800D3C0879B5F
:1000E000FECF8FE493EC0197F1F700C00000E091A0
:1000F000E800F091E900EE0FFF1FA1E0B0E0AC0FC7
:10010000BD1FEA0FFB1F208131812BBB38BBA9012A
:10011000452F552742954F70C901807F9F70BC01C4
:10012000729562956F7067277F706727F901EF708E
:10013000FF278091E8009091E90001969093E900F3
:100140008093E8004F30510571F480E482BB83EF67
:1001500091E00197F1F700C0000012BA7093E90036
:100160006093E8008FC04D305105F1F580E482BB0B
:10017000A3EFB1E01197F1F700C0000012BA80E0E0
:1001800090E001C080B3859BFDCFA3EFB1E0119754
:10019000F1F700C0000080FF75C023FF0CC0809104
:1001A000E8009091E900E80FF91F7097F093E900DB
:1001B000E093E8000AC08091E8009091E900E80F20
:1001C000F91FF093E900E093E8008091E800909136
:1001D000E9008434910528F48091E8009091E900C9
:1001E00051C080EF85BB4EC04630510509F041C07B
:1001F00080E482BB83EF91E00197F1F700C000003B
:1002000012BA80E002C080B38170859BFCCFA3EF5F
:10021000B1E01197F1F700C00000817039F523FFBC
:100220000CC08091E8009091E900E80FF91F7097E9
:10023000F093E900E093E8000AC08091E800909113
:10024000E900E80FF91FF093E900E093E8008091DE
:10025000E8009091E9008434910528F48091E80049
:100260009091E9000FC080EF85BB0CC081E085BB99
:1002700009C080E482BB83EF91E00197F1F700C0F1
:10028000000012BA8091E8009091E9008434910551
:1002900008F425CF80E090E0C857DF4F0FB6F89400
:1002A000DEBF0FBECDBFDF91CF910895F894FFCF91
:1002B0000385188502E103012AC20F8509A00550B4
:1002C0001185017112213A8531B1423141343885AD
:1002D0004193008510102281221027822510424070
:1002E000454040400485128515D03485208532D0A4
:1002F0002985218221820E6222C214620F850AA002
:100300001585408501C013D04184A0F240850A853F
:10031000128528853785001661C6101661C620161D
:1003200061C66186004661862046301661C66186D8
:080330000046618630460F8093
:00000001FF
