S02B0000436F6E74726F6C556E69745F526567697374657246696C655F414C555F446174614D656D2E7372657E
S11300000C9439000C9443000C9443000C9443006A
S11300100C9443000C9443000C9443000C94430050
S11300200C9443000C9443000C9443000C94430040
S11300300C9443000C9443000C9443000C94430030
S11300400C9443000C9443000C9443000C94430020
S11300500C9443008F00B200D100F2001301370169
S113006052016F019201AD01D101EB010E022A028E
S1130070470211241FBECFE5D8E0DEBFCDBF0E94EA
S113008045000C9479020C940000CF93DF93CDB714
S1130090DEB768970FB6F894DEBF0FBECDBF84B746
S11300A0806884BF84B7806884BF17BA1ABA8FE0A7
S11300B084BB91E891BB12BAFE01319698E0DF014E
S11300C01D929A95E9F78F83389680E1DF011D929E
S11300D08A95E9F70CC083B382958F70E1E0F0E074
S11300E0EC0FFD1FE80FF11D80818F7085BB819B94
S11300F0F2CF83EF91E00197F1F700C0000026B33F
S113010039B3E22FE295EF708E2F90E08F30910596
S113011008F0DEC1FC01E65DFF4F0C947302432F2F
S11301204F702F70E1E0F0E0EC0FFD1FE20FF11DC6
S11301309081E32FE295EF70A1E0B0E0AC0FBD1F1A
S1130140AE0FB11DFD018081981BE1E0F0E0EC0FE2
S1130150FD1FE40FF11D90839111BAC182B3816038
S113016082BBB6C12F70832F82958F70E32FEF70FF
S1130170A1E0B0E0AC0FBD1FA20FB11D9C91F0E057
S1130180E90FF11DA1E0B0E0AC0FBD1FA80FB11D38
S11301908C9129E030E02C0F3D1FE20FF31F808388
S11301A097C1432F42954F702F70E1E0F0E0EC0FC0
S11301B0FD1FE20FF11D2081E32FEF7030E0C90134
S11301C002C0880F991FEA95E2F7E1E0F0E0EC0F36
S11301D0FD1FE40FF11D808381117AC182B3816018
S11301E082BB76C1432F42954F702F70E1E0F0E05F
S11301F0EC0FFD1FE20FF11D2081E32FEF7030E0C3
S1130200C90102C095958795EA95E2F7E1E0F0E02F
S1130210EC0FFD1FE40FF11D8083811159C182B3DE
S1130220816082BB55C12F70932F92959F70E32FED
S1130230EF70A1E0B0E0AC0FBD1FA20FB11D8C9117
S1130240F0E0E80FF11D49E050E04C0F5D1FE40FB2
S1130250F51F8081E1E0F0E0EC0FFD1FE90FF11DD7
S11302608083811135C182B3816082BB31C1432F48
S113027042954F702F70E1E0F0E0EC0FFD1FE20FAC
S1130280F11D9081E32FEF70E92BA1E0B0E0AC0FFA
S1130290BD1FA40FB11DEC93E1111AC182B381609B
S11302A082BB16C12F70E1E0F0E0EC0FFD1FE20FFE
S11302B0F11D9081E32FE295EF70A1E0B0E0AC0F67
S11302C0BD1FAE0FB11DFD018081981721F082B3CF
S11302D08E7F82BBFDC082B3816082BBF9C0932F45
S11302E09F70E32FE295EF7041E050E04C0F5D1FEB
S11302F04E0F511DFA0130812F70E1E0F0E0EC0F58
S1130300FD1FE20FF11D80818323E1E0F0E0EC0F9B
S1130310FD1FE90FF11D80838111DAC082B3816072
S113032082BBD6C0432F42954F702F70E1E0F0E0BE
S1130330EC0FFD1FE20FF11D9081E32FEF70E90F29
S1130340A1E0B0E0AC0FBD1FA40FB11DEC93E1110F
S1130350BFC082B3816082BBBBC0932F9F70E32F69
S1130360E295EF70A1E0B0E0AC0FBD1FAE0FB11D80
S1130370FD0130812F70E1E0F0E0EC0FFD1FE20F92
S1130380F11D8081832B8095E1E0F0E0EC0FFD1FEF
S1130390E90FF11D808381119BC082B3816082BB10
S11303A097C0832F82958F702F70E1E0F0E0EC0FFF
S11303B0FD1FE20FF11DE081E323EF70A1E0B0E047
S11303C0AC0FBD1FA80FB11DEC93E11181C082B326
S11303D0816082BB7DC0932F9F70E32FE295EF7005
S11303E041E050E04C0F5D1F4E0F511DFA0130816A
S11303F02F70E1E0F0E0EC0FFD1FE20FF11D8081B2
S1130400832BE1E0F0E0EC0FFD1FE90FF11D808389
S113041081115EC082B3816082BB5AC0432F429572
S11304204F702F70E1E0F0E0EC0FFD1FE20FF11DC3
S11304309081E32FEF70892F8E1BE1E0F0E0EC0F49
S1130440FD1FE40FF11D8083811142C082B38160DE
S113045082BB3EC02F70E1E0F0E0EC0FFD1FE20F25
S1130460F11D9081E32FE295EF70A1E0B0E0AC0FB5
S1130470BD1FAE0FB11DFD018081981304C082B36E
S1130480816082BB25C082B38E7F82BB21C0932F43
S11304909F70832F82958F70E1E0F0E0EC0FFD1FD9
S11304A0E80FF11D30812F70E1E0F0E0EC0FFD1F4B
S11304B0E20FF11D8081830FE1E0F0E0EC0FFD1FFE
S11304C0E90FF11D8083811103C082B3816082BB77
S11304D082B3806882BB83EF91E00197F1F700C09B
S11304E0000012BA04CEEE0FFF1F0590F491E02D28
S10904F00994F894FFCF0B
S9030000FC
